{"abi":[{"type":"constructor","inputs":[{"name":"_tokenA","type":"address","internalType":"address"},{"name":"_tokenB","type":"address","internalType":"address"}],"stateMutability":"nonpayable"},{"type":"function","name":"addLiquidity","inputs":[{"name":"_tokenA","type":"address","internalType":"address"},{"name":"_tokenB","type":"address","internalType":"address"},{"name":"_amountA","type":"uint256","internalType":"uint256"},{"name":"_amountB","type":"uint256","internalType":"uint256"}],"outputs":[],"stateMutability":"nonpayable"},{"type":"function","name":"swap","inputs":[{"name":"tokenIn","type":"address","internalType":"address"},{"name":"tokenOut","type":"address","internalType":"address"},{"name":"amountIn","type":"uint256","internalType":"uint256"},{"name":"to","type":"address","internalType":"address"}],"outputs":[{"name":"success","type":"bool","internalType":"bool"}],"stateMutability":"nonpayable"},{"type":"function","name":"tokenA","inputs":[],"outputs":[{"name":"","type":"address","internalType":"address"}],"stateMutability":"view"},{"type":"function","name":"tokenB","inputs":[],"outputs":[{"name":"","type":"address","internalType":"address"}],"stateMutability":"view"}],"bytecode":{"object":"0x608060405234801561000f575f5ffd5b5060405161089b38038061089b83398181016040528101906100319190610115565b815f5f6101000a81548173ffffffffffffffffffffffffffffffffffffffff021916908373ffffffffffffffffffffffffffffffffffffffff1602179055508060015f6101000a81548173ffffffffffffffffffffffffffffffffffffffff021916908373ffffffffffffffffffffffffffffffffffffffff1602179055505050610153565b5f5ffd5b5f73ffffffffffffffffffffffffffffffffffffffff82169050919050565b5f6100e4826100bb565b9050919050565b6100f4816100da565b81146100fe575f5ffd5b50565b5f8151905061010f816100eb565b92915050565b5f5f6040838503121561012b5761012a6100b7565b5b5f61013885828601610101565b925050602061014985828601610101565b9150509250929050565b61073b806101605f395ff3fe608060405234801561000f575f5ffd5b506004361061004a575f3560e01c80630fc63d101461004e5780635f64b55b1461006c5780636e81221c1461008a578063cf6c62ea146100ba575b5f5ffd5b6100566100d6565b604051610063919061047f565b60405180910390f35b6100746100fa565b604051610081919061047f565b60405180910390f35b6100a4600480360381019061009f91906104f9565b61011f565b6040516100b19190610577565b60405180910390f35b6100d460048036038101906100cf9190610590565b61033e565b005b5f5f9054906101000a900473ffffffffffffffffffffffffffffffffffffffff1681565b60015f9054906101000a900473ffffffffffffffffffffffffffffffffffffffff1681565b5f5f5f9054906101000a900473ffffffffffffffffffffffffffffffffffffffff1673ffffffffffffffffffffffffffffffffffffffff168573ffffffffffffffffffffffffffffffffffffffff161480156101c7575060015f9054906101000a900473ffffffffffffffffffffffffffffffffffffffff1673ffffffffffffffffffffffffffffffffffffffff168473ffffffffffffffffffffffffffffffffffffffff16145b80610275575060015f9054906101000a900473ffffffffffffffffffffffffffffffffffffffff1673ffffffffffffffffffffffffffffffffffffffff168573ffffffffffffffffffffffffffffffffffffffff1614801561027457505f5f9054906101000a900473ffffffffffffffffffffffffffffffffffffffff1673ffffffffffffffffffffffffffffffffffffffff168473ffffffffffffffffffffffffffffffffffffffff16145b5b6102b4576040517f08c379a00000000000000000000000000000000000000000000000000000000081526004016102ab9061064e565b60405180910390fd5b8473ffffffffffffffffffffffffffffffffffffffff166323b872dd3330866040518463ffffffff1660e01b81526004016102f19392919061067b565b6020604051808303815f875af115801561030d573d5f5f3e3d5ffd5b505050506040513d601f19601f8201168201806040525081019061033191906106da565b5060019050949350505050565b8373ffffffffffffffffffffffffffffffffffffffff166323b872dd3330856040518463ffffffff1660e01b815260040161037b9392919061067b565b6020604051808303815f875af1158015610397573d5f5f3e3d5ffd5b505050506040513d601f19601f820116820180604052508101906103bb91906106da565b508273ffffffffffffffffffffffffffffffffffffffff166323b872dd3330846040518463ffffffff1660e01b81526004016103f99392919061067b565b6020604051808303815f875af1158015610415573d5f5f3e3d5ffd5b505050506040513d601f19601f8201168201806040525081019061043991906106da565b5050505050565b5f73ffffffffffffffffffffffffffffffffffffffff82169050919050565b5f61046982610440565b9050919050565b6104798161045f565b82525050565b5f6020820190506104925f830184610470565b92915050565b5f5ffd5b6104a58161045f565b81146104af575f5ffd5b50565b5f813590506104c08161049c565b92915050565b5f819050919050565b6104d8816104c6565b81146104e2575f5ffd5b50565b5f813590506104f3816104cf565b92915050565b5f5f5f5f6080858703121561051157610510610498565b5b5f61051e878288016104b2565b945050602061052f878288016104b2565b9350506040610540878288016104e5565b9250506060610551878288016104b2565b91505092959194509250565b5f8115159050919050565b6105718161055d565b82525050565b5f60208201905061058a5f830184610568565b92915050565b5f5f5f5f608085870312156105a8576105a7610498565b5b5f6105b5878288016104b2565b94505060206105c6878288016104b2565b93505060406105d7878288016104e5565b92505060606105e8878288016104e5565b91505092959194509250565b5f82825260208201905092915050565b7f496e76616c6964207061697200000000000000000000000000000000000000005f82015250565b5f610638600c836105f4565b915061064382610604565b602082019050919050565b5f6020820190508181035f8301526106658161062c565b9050919050565b610675816104c6565b82525050565b5f60608201905061068e5f830186610470565b61069b6020830185610470565b6106a8604083018461066c565b949350505050565b6106b98161055d565b81146106c3575f5ffd5b50565b5f815190506106d4816106b0565b92915050565b5f602082840312156106ef576106ee610498565b5b5f6106fc848285016106c6565b9150509291505056fea2646970667358221220905015d56e4ea2b6305f03509810125270fdfef0dfb2850a912c3fd8167d030264736f6c634300081e0033","linkReferences":{}},"methodIdentifiers":{"addLiquidity(address,address,uint256,uint256)":"cf6c62ea","swap(address,address,uint256,address)":"6e81221c","tokenA()":"0fc63d10","tokenB()":"5f64b55b"},"id":25}