{"abi":[{"type":"constructor","inputs":[{"name":"_usdcAddress","type":"address","internalType":"address"},{"name":"_ammAddress","type":"address","internalType":"address"},{"name":"_pythAddress","type":"address","internalType":"address"},{"name":"_broadcasterAddress","type":"address","internalType":"address"},{"name":"_relayerAddress","type":"address","internalType":"address"}],"stateMutability":"nonpayable"},{"type":"function","name":"amm","inputs":[],"outputs":[{"name":"","type":"address","internalType":"contract IAmm"}],"stateMutability":"view"},{"type":"function","name":"broadcasterAddress","inputs":[],"outputs":[{"name":"","type":"address","internalType":"address"}],"stateMutability":"view"},{"type":"function","name":"deposit","inputs":[{"name":"amount","type":"uint256","internalType":"uint256"}],"outputs":[],"stateMutability":"nonpayable"},{"type":"function","name":"deposits","inputs":[{"name":"","type":"address","internalType":"address"}],"outputs":[{"name":"","type":"uint256","internalType":"uint256"}],"stateMutability":"view"},{"type":"function","name":"forceWithdraw","inputs":[{"name":"signed_withdrawal_message","type":"bytes","internalType":"bytes"}],"outputs":[],"stateMutability":"nonpayable"},{"type":"function","name":"pyth","inputs":[],"outputs":[{"name":"","type":"address","internalType":"contract IPyth"}],"stateMutability":"view"},{"type":"function","name":"relayerAddress","inputs":[],"outputs":[{"name":"","type":"address","internalType":"address"}],"stateMutability":"view"},{"type":"function","name":"settleTrades","inputs":[{"name":"bundled_agreements","type":"bytes[]","internalType":"bytes[]"}],"outputs":[],"stateMutability":"nonpayable"},{"type":"function","name":"usdc","inputs":[],"outputs":[{"name":"","type":"address","internalType":"contract IERC20"}],"stateMutability":"view"},{"type":"event","name":"Deposit","inputs":[{"name":"user","type":"address","indexed":true,"internalType":"address"},{"name":"amount","type":"uint256","indexed":false,"internalType":"uint256"}],"anonymous":false},{"type":"event","name":"Withdraw","inputs":[{"name":"user","type":"address","indexed":true,"internalType":"address"},{"name":"amount","type":"uint256","indexed":false,"internalType":"uint256"}],"anonymous":false},{"type":"error","name":"OnlyRelayer","inputs":[]}],"bytecode":{"object":"0x608060405234801561000f575f5ffd5b5060405161090c38038061090c833981810160405281019061003191906101d8565b845f5f6101000a81548173ffffffffffffffffffffffffffffffffffffffff021916908373ffffffffffffffffffffffffffffffffffffffff1602179055508360015f6101000a81548173ffffffffffffffffffffffffffffffffffffffff021916908373ffffffffffffffffffffffffffffffffffffffff1602179055508260025f6101000a81548173ffffffffffffffffffffffffffffffffffffffff021916908373ffffffffffffffffffffffffffffffffffffffff1602179055508160045f6101000a81548173ffffffffffffffffffffffffffffffffffffffff021916908373ffffffffffffffffffffffffffffffffffffffff1602179055508060035f6101000a81548173ffffffffffffffffffffffffffffffffffffffff021916908373ffffffffffffffffffffffffffffffffffffffff160217905550505050505061024f565b5f5ffd5b5f73ffffffffffffffffffffffffffffffffffffffff82169050919050565b5f6101a78261017e565b9050919050565b6101b78161019d565b81146101c1575f5ffd5b50565b5f815190506101d2816101ae565b92915050565b5f5f5f5f5f60a086880312156101f1576101f061017a565b5b5f6101fe888289016101c4565b955050602061020f888289016101c4565b9450506040610220888289016101c4565b9350506060610231888289016101c4565b9250506080610242888289016101c4565b9150509295509295909350565b6106b08061025c5f395ff3fe608060405234801561000f575f5ffd5b5060043610610091575f3560e01c80632a943945116100645780632a943945146101095780633e413bee14610127578063b6b55f2514610145578063f98d06f014610161578063fc7e286d1461017f57610091565b806306bf72ce146100955780630d351f8a146100b1578063104dbb99146100cd57806318a7cca8146100eb575b5f5ffd5b6100af60048036038101906100aa9190610376565b6101af565b005b6100cb60048036038101906100c69190610416565b6101b3565b005b6100d561023d565b6040516100e291906104a0565b60405180910390f35b6100f3610262565b60405161010091906104a0565b60405180910390f35b610111610287565b60405161011e9190610514565b60405180910390f35b61012f6102ac565b60405161013c919061054d565b60405180910390f35b61015f600480360381019061015a9190610599565b6102d0565b005b6101696102d3565b60405161017691906105e4565b60405180910390f35b61019960048036038101906101949190610627565b6102f8565b6040516101a69190610661565b60405180910390f35b5050565b60035f9054906101000a900473ffffffffffffffffffffffffffffffffffffffff1673ffffffffffffffffffffffffffffffffffffffff163373ffffffffffffffffffffffffffffffffffffffff1614610239576040517f4578ddb800000000000000000000000000000000000000000000000000000000815260040160405180910390fd5b5050565b60045f9054906101000a900473ffffffffffffffffffffffffffffffffffffffff1681565b60035f9054906101000a900473ffffffffffffffffffffffffffffffffffffffff1681565b60015f9054906101000a900473ffffffffffffffffffffffffffffffffffffffff1681565b5f5f9054906101000a900473ffffffffffffffffffffffffffffffffffffffff1681565b50565b60025f9054906101000a900473ffffffffffffffffffffffffffffffffffffffff1681565b6005602052805f5260405f205f915090505481565b5f5ffd5b5f5ffd5b5f5ffd5b5f5ffd5b5f5ffd5b5f5f83601f84011261033657610335610315565b5b8235905067ffffffffffffffff81111561035357610352610319565b5b60208301915083600182028301111561036f5761036e61031d565b5b9250929050565b5f5f6020838503121561038c5761038b61030d565b5b5f83013567ffffffffffffffff8111156103a9576103a8610311565b5b6103b585828601610321565b92509250509250929050565b5f5f83601f8401126103d6576103d5610315565b5b8235905067ffffffffffffffff8111156103f3576103f2610319565b5b60208301915083602082028301111561040f5761040e61031d565b5b9250929050565b5f5f6020838503121561042c5761042b61030d565b5b5f83013567ffffffffffffffff81111561044957610448610311565b5b610455858286016103c1565b92509250509250929050565b5f73ffffffffffffffffffffffffffffffffffffffff82169050919050565b5f61048a82610461565b9050919050565b61049a81610480565b82525050565b5f6020820190506104b35f830184610491565b92915050565b5f819050919050565b5f6104dc6104d76104d284610461565b6104b9565b610461565b9050919050565b5f6104ed826104c2565b9050919050565b5f6104fe826104e3565b9050919050565b61050e816104f4565b82525050565b5f6020820190506105275f830184610505565b92915050565b5f610537826104e3565b9050919050565b6105478161052d565b82525050565b5f6020820190506105605f83018461053e565b92915050565b5f819050919050565b61057881610566565b8114610582575f5ffd5b50565b5f813590506105938161056f565b92915050565b5f602082840312156105ae576105ad61030d565b5b5f6105bb84828501610585565b91505092915050565b5f6105ce826104e3565b9050919050565b6105de816105c4565b82525050565b5f6020820190506105f75f8301846105d5565b92915050565b61060681610480565b8114610610575f5ffd5b50565b5f81359050610621816105fd565b92915050565b5f6020828403121561063c5761063b61030d565b5b5f61064984828501610613565b91505092915050565b61065b81610566565b82525050565b5f6020820190506106745f830184610652565b9291505056fea26469706673582212206730385d00e3b66d2a6a021f46b0d7403463148bf6f071dffca077f15a13b46a64736f6c634300081e0033","linkReferences":{}},"methodIdentifiers":{"amm()":"2a943945","broadcasterAddress()":"104dbb99","deposit(uint256)":"b6b55f25","deposits(address)":"fc7e286d","forceWithdraw(bytes)":"06bf72ce","pyth()":"f98d06f0","relayerAddress()":"18a7cca8","settleTrades(bytes[])":"0d351f8a","usdc()":"3e413bee"},"id":27}